{
  "_format": "hh-sol-artifact-1",
  "contractName": "Assessment",
  "sourceName": "contracts/Assessment.sol",
  "abi": [
    {
      "inputs": [],
      "stateMutability": "nonpayable",
      "type": "constructor"
    },
    {
      "anonymous": false,
      "inputs": [
        {
          "indexed": false,
          "internalType": "uint256",
          "name": "amount",
          "type": "uint256"
        }
      ],
      "name": "Deposit",
      "type": "event"
    },
    {
      "anonymous": false,
      "inputs": [
        {
          "indexed": false,
          "internalType": "uint256",
          "name": "amount",
          "type": "uint256"
        }
      ],
      "name": "Withdraw",
      "type": "event"
    },
    {
      "inputs": [],
      "name": "balance",
      "outputs": [
        {
          "internalType": "uint256",
          "name": "",
          "type": "uint256"
        }
      ],
      "stateMutability": "view",
      "type": "function"
    },
    {
      "inputs": [
        {
          "internalType": "uint256",
          "name": "_amount",
          "type": "uint256"
        }
      ],
      "name": "deposit",
      "outputs": [],
      "stateMutability": "payable",
      "type": "function"
    },
    {
      "inputs": [],
      "name": "getBalance",
      "outputs": [
        {
          "internalType": "uint256",
          "name": "",
          "type": "uint256"
        }
      ],
      "stateMutability": "view",
      "type": "function"
    },
    {
      "inputs": [],
      "name": "getLastDepositTime",
      "outputs": [
        {
          "internalType": "uint256",
          "name": "",
          "type": "uint256"
        }
      ],
      "stateMutability": "view",
      "type": "function"
    },
    {
      "inputs": [],
      "name": "getLastWithdrawTime",
      "outputs": [
        {
          "internalType": "uint256",
          "name": "",
          "type": "uint256"
        }
      ],
      "stateMutability": "view",
      "type": "function"
    },
    {
      "inputs": [],
      "name": "getTotalDeposits",
      "outputs": [
        {
          "internalType": "uint256",
          "name": "",
          "type": "uint256"
        }
      ],
      "stateMutability": "view",
      "type": "function"
    },
    {
      "inputs": [],
      "name": "getTotalWithdrawals",
      "outputs": [
        {
          "internalType": "uint256",
          "name": "",
          "type": "uint256"
        }
      ],
      "stateMutability": "view",
      "type": "function"
    },
    {
      "inputs": [],
      "name": "lastDepositTime",
      "outputs": [
        {
          "internalType": "uint256",
          "name": "",
          "type": "uint256"
        }
      ],
      "stateMutability": "view",
      "type": "function"
    },
    {
      "inputs": [],
      "name": "lastWithdrawTime",
      "outputs": [
        {
          "internalType": "uint256",
          "name": "",
          "type": "uint256"
        }
      ],
      "stateMutability": "view",
      "type": "function"
    },
    {
      "inputs": [],
      "name": "owner",
      "outputs": [
        {
          "internalType": "address",
          "name": "",
          "type": "address"
        }
      ],
      "stateMutability": "view",
      "type": "function"
    },
    {
      "inputs": [],
      "name": "totalDeposits",
      "outputs": [
        {
          "internalType": "uint256",
          "name": "",
          "type": "uint256"
        }
      ],
      "stateMutability": "view",
      "type": "function"
    },
    {
      "inputs": [],
      "name": "totalWithdrawals",
      "outputs": [
        {
          "internalType": "uint256",
          "name": "",
          "type": "uint256"
        }
      ],
      "stateMutability": "view",
      "type": "function"
    },
    {
      "inputs": [
        {
          "internalType": "uint256",
          "name": "_amount",
          "type": "uint256"
        }
      ],
      "name": "withdraw",
      "outputs": [],
      "stateMutability": "nonpayable",
      "type": "function"
    }
  ],
  "bytecode": "0x608060405234801561001057600080fd5b50336000806101000a81548173ffffffffffffffffffffffffffffffffffffffff021916908373ffffffffffffffffffffffffffffffffffffffff16021790555060006001819055506000600281905550600060038190555060006004819055506000600581905550610a7b806100886000396000f3fe6080604052600436106100c25760003560e01c80636c652d9c1161007f578063ab23151111610059578063ab23151114610248578063b69ef8a814610273578063b6b55f251461029e578063bd28f351146102ba576100c2565b80636c652d9c146101c75780637d882097146101f25780638da5cb5b1461021d576100c2565b806312065fe0146100c7578063166488d0146100f2578063168a48221461011d5780632e1a7d4d146101485780634b7f1d8114610171578063604646271461019c575b600080fd5b3480156100d357600080fd5b506100dc6102e5565b6040516100e991906106a6565b60405180910390f35b3480156100fe57600080fd5b506101076102ef565b60405161011491906106a6565b60405180910390f35b34801561012957600080fd5b506101326102f9565b60405161013f91906106a6565b60405180910390f35b34801561015457600080fd5b5061016f600480360381019061016a91906106f2565b610303565b005b34801561017d57600080fd5b506101866104f3565b60405161019391906106a6565b60405180910390f35b3480156101a857600080fd5b506101b16104fd565b6040516101be91906106a6565b60405180910390f35b3480156101d357600080fd5b506101dc610503565b6040516101e991906106a6565b60405180910390f35b3480156101fe57600080fd5b5061020761050d565b60405161021491906106a6565b60405180910390f35b34801561022957600080fd5b50610232610513565b60405161023f9190610760565b60405180910390f35b34801561025457600080fd5b5061025d610537565b60405161026a91906106a6565b60405180910390f35b34801561027f57600080fd5b5061028861053d565b60405161029591906106a6565b60405180910390f35b6102b860048036038101906102b391906106f2565b610543565b005b3480156102c657600080fd5b506102cf610687565b6040516102dc91906106a6565b60405180910390f35b6000600154905090565b6000600554905090565b6000600254905090565b60008054906101000a900473ffffffffffffffffffffffffffffffffffffffff1673ffffffffffffffffffffffffffffffffffffffff163373ffffffffffffffffffffffffffffffffffffffff1614610391576040517f08c379a0000000000000000000000000000000000000000000000000000000008152600401610388906107fe565b60405180910390fd5b600081116103d4576040517f08c379a00000000000000000000000000000000000000000000000000000000081526004016103cb90610890565b60405180910390fd5b806001541015610419576040517f08c379a0000000000000000000000000000000000000000000000000000000008152600401610410906108fc565b60405180910390fd5b806001600082825461042b919061094b565b925050819055508060036000828254610444919061097f565b92505081905550426005819055507f5b6b431d4476a211bb7d41c20d1aab9ae2321deee0d20be3d9fc9b1093fa6e3d8160405161048191906106a6565b60405180910390a160008054906101000a900473ffffffffffffffffffffffffffffffffffffffff1673ffffffffffffffffffffffffffffffffffffffff166108fc829081150290604051600060405180830381858888f193505050501580156104ef573d6000803e3d6000fd5b5050565b6000600354905090565b60035481565b6000600454905090565b60025481565b60008054906101000a900473ffffffffffffffffffffffffffffffffffffffff1681565b60055481565b60015481565b60008054906101000a900473ffffffffffffffffffffffffffffffffffffffff1673ffffffffffffffffffffffffffffffffffffffff163373ffffffffffffffffffffffffffffffffffffffff16146105d1576040517f08c379a00000000000000000000000000000000000000000000000000000000081526004016105c8906107fe565b60405180910390fd5b60008111610614576040517f08c379a000000000000000000000000000000000000000000000000000000000815260040161060b90610a25565b60405180910390fd5b8060016000828254610626919061097f565b92505081905550806002600082825461063f919061097f565b92505081905550426004819055507f4d6ce1e535dbade1c23defba91e23b8f791ce5edc0cc320257a2b364e4e384268160405161067c91906106a6565b60405180910390a150565b60045481565b6000819050919050565b6106a08161068d565b82525050565b60006020820190506106bb6000830184610697565b92915050565b600080fd5b6106cf8161068d565b81146106da57600080fd5b50565b6000813590506106ec816106c6565b92915050565b600060208284031215610708576107076106c1565b5b6000610716848285016106dd565b91505092915050565b600073ffffffffffffffffffffffffffffffffffffffff82169050919050565b600061074a8261071f565b9050919050565b61075a8161073f565b82525050565b60006020820190506107756000830184610751565b92915050565b600082825260208201905092915050565b7f596f7520617265206e6f7420746865206f776e6572206f66207468697320616360008201527f636f756e74000000000000000000000000000000000000000000000000000000602082015250565b60006107e860258361077b565b91506107f38261078c565b604082019050919050565b60006020820190508181036000830152610817816107db565b9050919050565b7f5769746864726177616c20616d6f756e74206d7573742062652067726561746560008201527f72207468616e2030000000000000000000000000000000000000000000000000602082015250565b600061087a60288361077b565b91506108858261081e565b604082019050919050565b600060208201905081810360008301526108a98161086d565b9050919050565b7f496e73756666696369656e742066756e647320696e2041544d00000000000000600082015250565b60006108e660198361077b565b91506108f1826108b0565b602082019050919050565b60006020820190508181036000830152610915816108d9565b9050919050565b7f4e487b7100000000000000000000000000000000000000000000000000000000600052601160045260246000fd5b60006109568261068d565b91506109618361068d565b92508282039050818111156109795761097861091c565b5b92915050565b600061098a8261068d565b91506109958361068d565b92508282019050808211156109ad576109ac61091c565b5b92915050565b7f4465706f73697420616d6f756e74206d7573742062652067726561746572207460008201527f68616e2030000000000000000000000000000000000000000000000000000000602082015250565b6000610a0f60258361077b565b9150610a1a826109b3565b604082019050919050565b60006020820190508181036000830152610a3e81610a02565b905091905056fea2646970667358221220236b5418d7459969bb23caf28a293500eb375006b46cf5828fae2dbde88c783564736f6c63430008110033",
  "linkReferences": {},
  "deployedLinkReferences": {}
}